{
  "_format": "hh-sol-artifact-1",
  "contractName": "PingPortal",
  "sourceName": "contracts/PingPortal.sol",
  "abi": [
    {
      "inputs": [],
      "stateMutability": "payable",
      "type": "constructor"
    },
    {
      "anonymous": false,
      "inputs": [
        {
          "indexed": true,
          "internalType": "address",
          "name": "from",
          "type": "address"
        },
        {
          "indexed": false,
          "internalType": "uint256",
          "name": "timestamp",
          "type": "uint256"
        },
        {
          "indexed": false,
          "internalType": "string",
          "name": "message",
          "type": "string"
        },
        {
          "indexed": false,
          "internalType": "bool",
          "name": "isWinner",
          "type": "bool"
        }
      ],
      "name": "NewPing",
      "type": "event"
    },
    {
      "inputs": [],
      "name": "getAllPings",
      "outputs": [
        {
          "components": [
            {
              "internalType": "address",
              "name": "pinger",
              "type": "address"
            },
            {
              "internalType": "string",
              "name": "message",
              "type": "string"
            },
            {
              "internalType": "uint256",
              "name": "timestamp",
              "type": "uint256"
            },
            {
              "internalType": "bool",
              "name": "isWinner",
              "type": "bool"
            }
          ],
          "internalType": "struct PingPortal.Ping[]",
          "name": "",
          "type": "tuple[]"
        }
      ],
      "stateMutability": "view",
      "type": "function"
    },
    {
      "inputs": [],
      "name": "getTotalPings",
      "outputs": [
        {
          "internalType": "uint256",
          "name": "",
          "type": "uint256"
        }
      ],
      "stateMutability": "view",
      "type": "function"
    },
    {
      "inputs": [
        {
          "internalType": "address",
          "name": "",
          "type": "address"
        }
      ],
      "name": "lastWavedAt",
      "outputs": [
        {
          "internalType": "uint256",
          "name": "",
          "type": "uint256"
        }
      ],
      "stateMutability": "view",
      "type": "function"
    },
    {
      "inputs": [
        {
          "internalType": "string",
          "name": "_message",
          "type": "string"
        }
      ],
      "name": "ping",
      "outputs": [],
      "stateMutability": "payable",
      "type": "function"
    }
  ],
  "bytecode": "0x608060405260644442620000149190620001c4565b62000020919062000261565b600181905550620000716040518060400160405280601681526020017f50696e6720636f756e74657220636f6e747261637421000000000000000000008152506200007760201b620008651760201c565b62000308565b62000117816040516024016200008e919062000184565b6040516020818303038152906040527f41304fac000000000000000000000000000000000000000000000000000000007bffffffffffffffffffffffffffffffffffffffffffffffffffffffff19166020820180517bffffffffffffffffffffffffffffffffffffffffffffffffffffffff83818316178352505050506200011a60201b60201c565b50565b60008151905060006a636f6e736f6c652e6c6f679050602083016000808483855afa5050505050565b60006200015082620001a8565b6200015c8185620001b3565b93506200016e8185602086016200022b565b6200017981620002f7565b840191505092915050565b60006020820190508181036000830152620001a0818462000143565b905092915050565b600081519050919050565b600082825260208201905092915050565b6000620001d18262000221565b9150620001de8362000221565b9250827fffffffffffffffffffffffffffffffffffffffffffffffffffffffffffffffff0382111562000216576200021562000299565b5b828201905092915050565b6000819050919050565b60005b838110156200024b5780820151818401526020810190506200022e565b838111156200025b576000848401525b50505050565b60006200026e8262000221565b91506200027b8362000221565b9250826200028e576200028d620002c8565b5b828206905092915050565b7f4e487b7100000000000000000000000000000000000000000000000000000000600052601160045260246000fd5b7f4e487b7100000000000000000000000000000000000000000000000000000000600052601260045260246000fd5b6000601f19601f8301169050919050565b61143480620003186000396000f3fe60806040526004361061003f5760003560e01c80633adb191b146100445780634f7a0271146100605780637bd711141461008b578063a42a4663146100b6575b600080fd5b61005e60048036038101906100599190610c44565b6100f3565b005b34801561006c57600080fd5b50610075610696565b60405161008291906110ac565b60405180910390f35b34801561009757600080fd5b506100a06106e1565b6040516100ad9190610f78565b60405180910390f35b3480156100c257600080fd5b506100dd60048036038101906100d89190610c1b565b61084d565b6040516100ea91906110ac565b60405180910390f35b42603c600360003373ffffffffffffffffffffffffffffffffffffffff1673ffffffffffffffffffffffffffffffffffffffff1681526020019081526020016000205461014091906111d7565b10610180576040517f08c379a00000000000000000000000000000000000000000000000000000000081526004016101779061108c565b60405180910390fd5b42600360003373ffffffffffffffffffffffffffffffffffffffff1673ffffffffffffffffffffffffffffffffffffffff1681526020019081526020016000208190555060016000808282546101d691906111d7565b9250508190555061021c6040518060400160405280600d81526020017f2573206861732070696e67642100000000000000000000000000000000000000815250336108fe565b6064600154424461022d91906111d7565b61023791906111d7565b61024191906112e9565b6001819055506102886040518060400160405280601681526020017f52616e646f6d20232067656e6572617465643a2025640000000000000000000081525060015461099a565b60006019600154116104cd5760019050600260405180608001604052803373ffffffffffffffffffffffffffffffffffffffff168152602001848152602001428152602001831515815250908060018154018082558091505060019003906000526020600020906004020160009091909190915060008201518160000160006101000a81548173ffffffffffffffffffffffffffffffffffffffff021916908373ffffffffffffffffffffffffffffffffffffffff160217905550602082015181600101908051906020019061035f929190610afb565b506040820151816002015560608201518160030160006101000a81548160ff02191690831515021790555050506103cb6040518060400160405280600781526020017f257320776f6e2100000000000000000000000000000000000000000000000000815250336108fe565b600066038d7ea4c6800090504781111561041a576040517f08c379a00000000000000000000000000000000000000000000000000000000081526004016104119061104c565b60405180910390fd5b60003373ffffffffffffffffffffffffffffffffffffffff168260405161044090610f63565b60006040518083038185875af1925050503d806000811461047d576040519150601f19603f3d011682016040523d82523d6000602084013e610482565b606091505b50509050806104c6576040517f08c379a00000000000000000000000000000000000000000000000000000000081526004016104bd9061106c565b60405180910390fd5b5050610601565b600260405180608001604052803373ffffffffffffffffffffffffffffffffffffffff168152602001848152602001428152602001831515815250908060018154018082558091505060019003906000526020600020906004020160009091909190915060008201518160000160006101000a81548173ffffffffffffffffffffffffffffffffffffffff021916908373ffffffffffffffffffffffffffffffffffffffff1602179055506020820151816001019080519060200190610594929190610afb565b506040820151816002015560608201518160030160006101000a81548160ff02191690831515021790555050506106006040518060400160405280601181526020017f257320646964206e6f742077696e203a28000000000000000000000000000000815250336108fe565b5b6106406040518060400160405280600c81526020017f697357696e6e65723a202573000000000000000000000000000000000000000081525082610a36565b3373ffffffffffffffffffffffffffffffffffffffff167f2e595e725b30f7bd41d9f4d511bc98dc0b3470d87a16c320a3c7cf345a63b51c42848460405161068a939291906110c7565b60405180910390a25050565b60006106d96040518060400160405280601781526020017f5765206861766520257320746f74616c2070696e67732100000000000000000081525060005461099a565b600054905090565b60606002805480602002602001604051908101604052809291908181526020016000905b8282101561084457838290600052602060002090600402016040518060800160405290816000820160009054906101000a900473ffffffffffffffffffffffffffffffffffffffff1673ffffffffffffffffffffffffffffffffffffffff1673ffffffffffffffffffffffffffffffffffffffff16815260200160018201805461078e906112b7565b80601f01602080910402602001604051908101604052809291908181526020018280546107ba906112b7565b80156108075780601f106107dc57610100808354040283529160200191610807565b820191906000526020600020905b8154815290600101906020018083116107ea57829003601f168201915b50505050508152602001600282015481526020016003820160009054906101000a900460ff16151515158152505081526020019060010190610705565b50505050905090565b60036020528060005260406000206000915090505481565b6108fb816040516024016108799190610f9a565b6040516020818303038152906040527f41304fac000000000000000000000000000000000000000000000000000000007bffffffffffffffffffffffffffffffffffffffffffffffffffffffff19166020820180517bffffffffffffffffffffffffffffffffffffffffffffffffffffffff8381831617835250505050610ad2565b50565b6109968282604051602401610914929190610fbc565b6040516020818303038152906040527f319af333000000000000000000000000000000000000000000000000000000007bffffffffffffffffffffffffffffffffffffffffffffffffffffffff19166020820180517bffffffffffffffffffffffffffffffffffffffffffffffffffffffff8381831617835250505050610ad2565b5050565b610a3282826040516024016109b092919061101c565b6040516020818303038152906040527f9710a9d0000000000000000000000000000000000000000000000000000000007bffffffffffffffffffffffffffffffffffffffffffffffffffffffff19166020820180517bffffffffffffffffffffffffffffffffffffffffffffffffffffffff8381831617835250505050610ad2565b5050565b610ace8282604051602401610a4c929190610fec565b6040516020818303038152906040527fc3b55635000000000000000000000000000000000000000000000000000000007bffffffffffffffffffffffffffffffffffffffffffffffffffffffff19166020820180517bffffffffffffffffffffffffffffffffffffffffffffffffffffffff8381831617835250505050610ad2565b5050565b60008151905060006a636f6e736f6c652e6c6f679050602083016000808483855afa5050505050565b828054610b07906112b7565b90600052602060002090601f016020900481019282610b295760008555610b70565b82601f10610b4257805160ff1916838001178555610b70565b82800160010185558215610b70579182015b82811115610b6f578251825591602001919060010190610b54565b5b509050610b7d9190610b81565b5090565b5b80821115610b9a576000816000905550600101610b82565b5090565b6000610bb1610bac84611136565b611105565b905082815260208101848484011115610bc957600080fd5b610bd4848285611275565b509392505050565b600081359050610beb816113e7565b92915050565b600082601f830112610c0257600080fd5b8135610c12848260208601610b9e565b91505092915050565b600060208284031215610c2d57600080fd5b6000610c3b84828501610bdc565b91505092915050565b600060208284031215610c5657600080fd5b600082013567ffffffffffffffff811115610c7057600080fd5b610c7c84828501610bf1565b91505092915050565b6000610c918383610ee2565b905092915050565b610ca28161122d565b82525050565b610cb18161122d565b82525050565b6000610cc282611176565b610ccc8185611199565b935083602082028501610cde85611166565b8060005b85811015610d1a5784840389528151610cfb8582610c85565b9450610d068361118c565b925060208a01995050600181019050610ce2565b50829750879550505050505092915050565b610d358161123f565b82525050565b610d448161123f565b82525050565b6000610d5582611181565b610d5f81856111b5565b9350610d6f818560208601611284565b610d78816113d6565b840191505092915050565b6000610d8e82611181565b610d9881856111c6565b9350610da8818560208601611284565b610db1816113d6565b840191505092915050565b6000610dc96034836111c6565b91507f547279696e6720746f207769746864726177206d6f7265206d6f6e657920746860008301527f616e2074686520636f6e7472616374206861732e0000000000000000000000006020830152604082019050919050565b6000610e2f6027836111c6565b91507f4661696c656420746f207769746864726177206d6f6e65792066726f6d20636f60008301527f6e74726163742e000000000000000000000000000000000000000000000000006020830152604082019050919050565b6000610e956000836111aa565b9150600082019050919050565b6000610eaf6015836111c6565b91507f506c6561736520576169742035206d696e7574657300000000000000000000006000830152602082019050919050565b6000608083016000830151610efa6000860182610c99565b5060208301518482036020860152610f128282610d4a565b9150506040830151610f276040860182610f45565b506060830151610f3a6060860182610d2c565b508091505092915050565b610f4e8161126b565b82525050565b610f5d8161126b565b82525050565b6000610f6e82610e88565b9150819050919050565b60006020820190508181036000830152610f928184610cb7565b905092915050565b60006020820190508181036000830152610fb48184610d83565b905092915050565b60006040820190508181036000830152610fd68185610d83565b9050610fe56020830184610ca8565b9392505050565b600060408201905081810360008301526110068185610d83565b90506110156020830184610d3b565b9392505050565b600060408201905081810360008301526110368185610d83565b90506110456020830184610f54565b9392505050565b6000602082019050818103600083015261106581610dbc565b9050919050565b6000602082019050818103600083015261108581610e22565b9050919050565b600060208201905081810360008301526110a581610ea2565b9050919050565b60006020820190506110c16000830184610f54565b92915050565b60006060820190506110dc6000830186610f54565b81810360208301526110ee8185610d83565b90506110fd6040830184610d3b565b949350505050565b6000604051905081810181811067ffffffffffffffff8211171561112c5761112b6113a7565b5b8060405250919050565b600067ffffffffffffffff821115611151576111506113a7565b5b601f19601f8301169050602081019050919050565b6000819050602082019050919050565b600081519050919050565b600081519050919050565b6000602082019050919050565b600082825260208201905092915050565b600081905092915050565b600082825260208201905092915050565b600082825260208201905092915050565b60006111e28261126b565b91506111ed8361126b565b9250827fffffffffffffffffffffffffffffffffffffffffffffffffffffffffffffffff038211156112225761122161131a565b5b828201905092915050565b60006112388261124b565b9050919050565b60008115159050919050565b600073ffffffffffffffffffffffffffffffffffffffff82169050919050565b6000819050919050565b82818337600083830152505050565b60005b838110156112a2578082015181840152602081019050611287565b838111156112b1576000848401525b50505050565b600060028204905060018216806112cf57607f821691505b602082108114156112e3576112e2611378565b5b50919050565b60006112f48261126b565b91506112ff8361126b565b92508261130f5761130e611349565b5b828206905092915050565b7f4e487b7100000000000000000000000000000000000000000000000000000000600052601160045260246000fd5b7f4e487b7100000000000000000000000000000000000000000000000000000000600052601260045260246000fd5b7f4e487b7100000000000000000000000000000000000000000000000000000000600052602260045260246000fd5b7f4e487b7100000000000000000000000000000000000000000000000000000000600052604160045260246000fd5b6000601f19601f8301169050919050565b6113f08161122d565b81146113fb57600080fd5b5056fea2646970667358221220ae6df8c3da827f7a9c1aa7c3beda9a23623ec2476fad8c97b6baf2ae590e04e064736f6c63430008000033",
  "linkReferences": {},
  "deployedLinkReferences": {}
}